{
  "contractName": "Helloworld",
  "abi": [
    {
      "inputs": [
        {
          "internalType": "string",
          "name": "_message",
          "type": "string"
        }
      ],
      "payable": false,
      "stateMutability": "nonpayable",
      "type": "constructor"
    },
    {
      "constant": true,
      "inputs": [],
      "name": "message",
      "outputs": [
        {
          "internalType": "string",
          "name": "",
          "type": "string"
        }
      ],
      "payable": false,
      "stateMutability": "view",
      "type": "function"
    },
    {
      "constant": true,
      "inputs": [],
      "name": "hello",
      "outputs": [
        {
          "internalType": "string",
          "name": "",
          "type": "string"
        }
      ],
      "payable": false,
      "stateMutability": "view",
      "type": "function"
    },
    {
      "constant": false,
      "inputs": [
        {
          "internalType": "string",
          "name": "_message",
          "type": "string"
        }
      ],
      "name": "setMessage",
      "outputs": [],
      "payable": true,
      "stateMutability": "payable",
      "type": "function"
    }
  ],
  "bytecode": "0x608060405234801561001057600080fd5b506040516106a23803806106a28339818101604052602081101561003357600080fd5b810190808051604051939291908464010000000082111561005357600080fd5b8382019150602082018581111561006957600080fd5b825186600182028301116401000000008211171561008657600080fd5b8083526020830192505050908051906020019080838360005b838110156100ba57808201518184015260208101905061009f565b50505050905090810190601f1680156100e75780820380516001836020036101000a031916815260200191505b50604052505050806000908051906020019061010492919061014c565b5033600160006101000a81548173ffffffffffffffffffffffffffffffffffffffff021916908373ffffffffffffffffffffffffffffffffffffffff160217905550506101f1565b828054600181600116156101000203166002900490600052602060002090601f016020900481019282601f1061018d57805160ff19168380011785556101bb565b828001600101855582156101bb579182015b828111156101ba57825182559160200191906001019061019f565b5b5090506101c891906101cc565b5090565b6101ee91905b808211156101ea5760008160009055506001016101d2565b5090565b90565b6104a2806102006000396000f3fe6080604052600436106100345760003560e01c806319ff1d2114610039578063368b8772146100c9578063e21f37ce14610184575b600080fd5b34801561004557600080fd5b5061004e610214565b6040518080602001828103825283818151815260200191508051906020019080838360005b8381101561008e578082015181840152602081019050610073565b50505050905090810190601f1680156100bb5780820380516001836020036101000a031916815260200191505b509250505060405180910390f35b610182600480360360208110156100df57600080fd5b81019080803590602001906401000000008111156100fc57600080fd5b82018360208201111561010e57600080fd5b8035906020019184600183028401116401000000008311171561013057600080fd5b91908080601f016020809104026020016040519081016040528093929190818152602001838380828437600081840152601f19601f8201169050808301925050505050505091929192905050506102b6565b005b34801561019057600080fd5b5061019961032a565b6040518080602001828103825283818151815260200191508051906020019080838360005b838110156101d95780820151818401526020810190506101be565b50505050905090810190601f1680156102065780820380516001836020036101000a031916815260200191505b509250505060405180910390f35b606060008054600181600116156101000203166002900480601f0160208091040260200160405190810160405280929190818152602001828054600181600116156101000203166002900480156102ac5780601f10610281576101008083540402835291602001916102ac565b820191906000526020600020905b81548152906001019060200180831161028f57829003601f168201915b5050505050905090565b600160009054906101000a900473ffffffffffffffffffffffffffffffffffffffff1673ffffffffffffffffffffffffffffffffffffffff163373ffffffffffffffffffffffffffffffffffffffff161461031057600080fd5b80600090805190602001906103269291906103c8565b5050565b60008054600181600116156101000203166002900480601f0160208091040260200160405190810160405280929190818152602001828054600181600116156101000203166002900480156103c05780601f10610395576101008083540402835291602001916103c0565b820191906000526020600020905b8154815290600101906020018083116103a357829003601f168201915b505050505081565b828054600181600116156101000203166002900490600052602060002090601f016020900481019282601f1061040957805160ff1916838001178555610437565b82800160010185558215610437579182015b8281111561043657825182559160200191906001019061041b565b5b5090506104449190610448565b5090565b61046a91905b8082111561046657600081600090555060010161044e565b5090565b9056fea265627a7a72315820492a51cce4eba7cafeb288a43a5542678f37be7620b1a1bae2ba5ed5d9c94ed364736f6c63430005100032",
  "source": "pragma solidity 0.5.16;\n\ncontract Helloworld{\n    string public message;\n    address owner;\n    \n    constructor(string memory _message) public{\n        message = _message;\n        owner=msg.sender;\n    }\n    function hello() public view returns (string memory) {\n        return message;\n    }\n    function setMessage(string memory _message) public payable{\n        require(msg.sender == owner);\n        message = _message;\n    }\n\n}",
  "sourcePath": "/Users/deepu/Documents/Truffle/contracts/Helloworld.sol",
  "compiler": {
    "name": "solc",
    "version": "0.5.16+commit.9c3226ce.Emscripten.clang"
  },
  "schemaVersion": "3.4.10",
  "updatedAt": "2022-10-14T18:53:57.737Z",
  "networkType": "ethereum",
  "devdoc": {
    "methods": {}
  },
  "userdoc": {
    "methods": {}
  }
}